:0F00000002009F7580FF7590FF227A0FDAFE22B3
:10000F007580DB7590C311037580E77590BD110383
:0F001F00110A80DD7580E775908111037580DB14
:0F002E007590BD1103110A80C97580C37590B517
:10003D0011037580FB7590F111037580DF75908F3D
:0E004D001103110A80AD7580C37590B51103C3
:0F005B007580FB7590811103110A80997580DF04
:10006A007590E111037580E77590EF11037580FBB8
:0F007A007590811103110A01007580C37590B54F
:1000890011037580DF7590F111037580FB75908FF1
:0E0099001103110A01007580C37590B51103A3
:1000A7007580DF75908111037580FB75908F110343
:0400B700110A010029
:00000001FF
