:10000000740030A02560FBB40103020063B4020356
:0F00100002007FB4030302009BB404030200AF9D
:10001F00B403030200CB0200E780D8E5207003F49D
:0F002F00F52054B8A2D0E52033F52075F00684F3
:10003E00E5F00480C47580FF7590FF227A0FDAFE1A
:0F004E00227580DB7590C311437580E77590BDF7
:0E005D001143114A809F7580E7759081114311
:10006B007580DF7590FD11437580DB7590BF114373
:0F007B00114A80837580C37590B511437580FB62
:0F008A007590F111437580DF75908F1143114A06
:1000990001027580C37590B511437580FB75908118
:0E00A9001143114A01027580DF7590E1114389
:1000B7007580E77590EF11437580FB75908111434B
:0F00C700114A01027580C37590B511437580DF32
:0F00D6007590F111437580FB75908F1143114A9E
:1000E50001027580C37590B511437580DF759081E8
:0E00F50011437580FB75908F1143114A010273
:00000001FF
